{
  "address": "0x5FbDB2315678afecb367f032d93F642f64180aa3",
  "abi": [
    {
      "inputs": [],
      "stateMutability": "nonpayable",
      "type": "constructor"
    },
    {
      "anonymous": false,
      "inputs": [
        {
          "indexed": true,
          "internalType": "address",
          "name": "owner",
          "type": "address"
        },
        {
          "indexed": true,
          "internalType": "address",
          "name": "spender",
          "type": "address"
        },
        {
          "indexed": false,
          "internalType": "uint256",
          "name": "value",
          "type": "uint256"
        }
      ],
      "name": "Approval",
      "type": "event"
    },
    {
      "anonymous": false,
      "inputs": [
        {
          "indexed": true,
          "internalType": "address",
          "name": "delegator",
          "type": "address"
        },
        {
          "indexed": true,
          "internalType": "address",
          "name": "fromDelegate",
          "type": "address"
        },
        {
          "indexed": true,
          "internalType": "address",
          "name": "toDelegate",
          "type": "address"
        }
      ],
      "name": "DelegateChanged",
      "type": "event"
    },
    {
      "anonymous": false,
      "inputs": [
        {
          "indexed": true,
          "internalType": "address",
          "name": "delegate",
          "type": "address"
        },
        {
          "indexed": false,
          "internalType": "uint256",
          "name": "previousBalance",
          "type": "uint256"
        },
        {
          "indexed": false,
          "internalType": "uint256",
          "name": "newBalance",
          "type": "uint256"
        }
      ],
      "name": "DelegateVotesChanged",
      "type": "event"
    },
    {
      "anonymous": false,
      "inputs": [
        {
          "indexed": true,
          "internalType": "address",
          "name": "from",
          "type": "address"
        },
        {
          "indexed": true,
          "internalType": "address",
          "name": "to",
          "type": "address"
        },
        {
          "indexed": false,
          "internalType": "uint256",
          "name": "value",
          "type": "uint256"
        }
      ],
      "name": "Transfer",
      "type": "event"
    },
    {
      "inputs": [],
      "name": "DOMAIN_SEPARATOR",
      "outputs": [
        {
          "internalType": "bytes32",
          "name": "",
          "type": "bytes32"
        }
      ],
      "stateMutability": "view",
      "type": "function"
    },
    {
      "inputs": [
        {
          "internalType": "address",
          "name": "owner",
          "type": "address"
        },
        {
          "internalType": "address",
          "name": "spender",
          "type": "address"
        }
      ],
      "name": "allowance",
      "outputs": [
        {
          "internalType": "uint256",
          "name": "",
          "type": "uint256"
        }
      ],
      "stateMutability": "view",
      "type": "function"
    },
    {
      "inputs": [
        {
          "internalType": "address",
          "name": "spender",
          "type": "address"
        },
        {
          "internalType": "uint256",
          "name": "amount",
          "type": "uint256"
        }
      ],
      "name": "approve",
      "outputs": [
        {
          "internalType": "bool",
          "name": "",
          "type": "bool"
        }
      ],
      "stateMutability": "nonpayable",
      "type": "function"
    },
    {
      "inputs": [
        {
          "internalType": "address",
          "name": "account",
          "type": "address"
        }
      ],
      "name": "balanceOf",
      "outputs": [
        {
          "internalType": "uint256",
          "name": "",
          "type": "uint256"
        }
      ],
      "stateMutability": "view",
      "type": "function"
    },
    {
      "inputs": [
        {
          "internalType": "address",
          "name": "account",
          "type": "address"
        },
        {
          "internalType": "uint32",
          "name": "pos",
          "type": "uint32"
        }
      ],
      "name": "checkpoints",
      "outputs": [
        {
          "components": [
            {
              "internalType": "uint32",
              "name": "fromBlock",
              "type": "uint32"
            },
            {
              "internalType": "uint224",
              "name": "votes",
              "type": "uint224"
            }
          ],
          "internalType": "struct ERC20Votes.Checkpoint",
          "name": "",
          "type": "tuple"
        }
      ],
      "stateMutability": "view",
      "type": "function"
    },
    {
      "inputs": [],
      "name": "decimals",
      "outputs": [
        {
          "internalType": "uint8",
          "name": "",
          "type": "uint8"
        }
      ],
      "stateMutability": "view",
      "type": "function"
    },
    {
      "inputs": [
        {
          "internalType": "address",
          "name": "spender",
          "type": "address"
        },
        {
          "internalType": "uint256",
          "name": "subtractedValue",
          "type": "uint256"
        }
      ],
      "name": "decreaseAllowance",
      "outputs": [
        {
          "internalType": "bool",
          "name": "",
          "type": "bool"
        }
      ],
      "stateMutability": "nonpayable",
      "type": "function"
    },
    {
      "inputs": [
        {
          "internalType": "address",
          "name": "delegatee",
          "type": "address"
        }
      ],
      "name": "delegate",
      "outputs": [],
      "stateMutability": "nonpayable",
      "type": "function"
    },
    {
      "inputs": [
        {
          "internalType": "address",
          "name": "delegatee",
          "type": "address"
        },
        {
          "internalType": "uint256",
          "name": "nonce",
          "type": "uint256"
        },
        {
          "internalType": "uint256",
          "name": "expiry",
          "type": "uint256"
        },
        {
          "internalType": "uint8",
          "name": "v",
          "type": "uint8"
        },
        {
          "internalType": "bytes32",
          "name": "r",
          "type": "bytes32"
        },
        {
          "internalType": "bytes32",
          "name": "s",
          "type": "bytes32"
        }
      ],
      "name": "delegateBySig",
      "outputs": [],
      "stateMutability": "nonpayable",
      "type": "function"
    },
    {
      "inputs": [
        {
          "internalType": "address",
          "name": "account",
          "type": "address"
        }
      ],
      "name": "delegates",
      "outputs": [
        {
          "internalType": "address",
          "name": "",
          "type": "address"
        }
      ],
      "stateMutability": "view",
      "type": "function"
    },
    {
      "inputs": [
        {
          "internalType": "uint256",
          "name": "blockNumber",
          "type": "uint256"
        }
      ],
      "name": "getPastTotalSupply",
      "outputs": [
        {
          "internalType": "uint256",
          "name": "",
          "type": "uint256"
        }
      ],
      "stateMutability": "view",
      "type": "function"
    },
    {
      "inputs": [
        {
          "internalType": "address",
          "name": "account",
          "type": "address"
        },
        {
          "internalType": "uint256",
          "name": "blockNumber",
          "type": "uint256"
        }
      ],
      "name": "getPastVotes",
      "outputs": [
        {
          "internalType": "uint256",
          "name": "",
          "type": "uint256"
        }
      ],
      "stateMutability": "view",
      "type": "function"
    },
    {
      "inputs": [
        {
          "internalType": "address",
          "name": "account",
          "type": "address"
        }
      ],
      "name": "getVotes",
      "outputs": [
        {
          "internalType": "uint256",
          "name": "",
          "type": "uint256"
        }
      ],
      "stateMutability": "view",
      "type": "function"
    },
    {
      "inputs": [
        {
          "internalType": "address",
          "name": "spender",
          "type": "address"
        },
        {
          "internalType": "uint256",
          "name": "addedValue",
          "type": "uint256"
        }
      ],
      "name": "increaseAllowance",
      "outputs": [
        {
          "internalType": "bool",
          "name": "",
          "type": "bool"
        }
      ],
      "stateMutability": "nonpayable",
      "type": "function"
    },
    {
      "inputs": [],
      "name": "name",
      "outputs": [
        {
          "internalType": "string",
          "name": "",
          "type": "string"
        }
      ],
      "stateMutability": "view",
      "type": "function"
    },
    {
      "inputs": [
        {
          "internalType": "address",
          "name": "owner",
          "type": "address"
        }
      ],
      "name": "nonces",
      "outputs": [
        {
          "internalType": "uint256",
          "name": "",
          "type": "uint256"
        }
      ],
      "stateMutability": "view",
      "type": "function"
    },
    {
      "inputs": [
        {
          "internalType": "address",
          "name": "account",
          "type": "address"
        }
      ],
      "name": "numCheckpoints",
      "outputs": [
        {
          "internalType": "uint32",
          "name": "",
          "type": "uint32"
        }
      ],
      "stateMutability": "view",
      "type": "function"
    },
    {
      "inputs": [
        {
          "internalType": "address",
          "name": "owner",
          "type": "address"
        },
        {
          "internalType": "address",
          "name": "spender",
          "type": "address"
        },
        {
          "internalType": "uint256",
          "name": "value",
          "type": "uint256"
        },
        {
          "internalType": "uint256",
          "name": "deadline",
          "type": "uint256"
        },
        {
          "internalType": "uint8",
          "name": "v",
          "type": "uint8"
        },
        {
          "internalType": "bytes32",
          "name": "r",
          "type": "bytes32"
        },
        {
          "internalType": "bytes32",
          "name": "s",
          "type": "bytes32"
        }
      ],
      "name": "permit",
      "outputs": [],
      "stateMutability": "nonpayable",
      "type": "function"
    },
    {
      "inputs": [],
      "name": "s_maxSupply",
      "outputs": [
        {
          "internalType": "uint256",
          "name": "",
          "type": "uint256"
        }
      ],
      "stateMutability": "view",
      "type": "function"
    },
    {
      "inputs": [],
      "name": "symbol",
      "outputs": [
        {
          "internalType": "string",
          "name": "",
          "type": "string"
        }
      ],
      "stateMutability": "view",
      "type": "function"
    },
    {
      "inputs": [],
      "name": "totalSupply",
      "outputs": [
        {
          "internalType": "uint256",
          "name": "",
          "type": "uint256"
        }
      ],
      "stateMutability": "view",
      "type": "function"
    },
    {
      "inputs": [
        {
          "internalType": "address",
          "name": "to",
          "type": "address"
        },
        {
          "internalType": "uint256",
          "name": "amount",
          "type": "uint256"
        }
      ],
      "name": "transfer",
      "outputs": [
        {
          "internalType": "bool",
          "name": "",
          "type": "bool"
        }
      ],
      "stateMutability": "nonpayable",
      "type": "function"
    },
    {
      "inputs": [
        {
          "internalType": "address",
          "name": "from",
          "type": "address"
        },
        {
          "internalType": "address",
          "name": "to",
          "type": "address"
        },
        {
          "internalType": "uint256",
          "name": "amount",
          "type": "uint256"
        }
      ],
      "name": "transferFrom",
      "outputs": [
        {
          "internalType": "bool",
          "name": "",
          "type": "bool"
        }
      ],
      "stateMutability": "nonpayable",
      "type": "function"
    }
  ],
  "transactionHash": "0xcf41ed502a203b790fcb961d7271b3933f9122980ce2d2a0af801f7b15d0a0fc",
  "args": [],
  "numDeployments": 1,
  "solcInputHash": "eca945d075df95ed7262f3702953fd16",
  "bytecode": "0x61014060405269d3c21bcecceda1000000600a553480156200002057600080fd5b506040518060400160405280600f81526020017f476f7665726e616e6365546f6b656e0000000000000000000000000000000000815250806040518060400160405280600181526020017f31000000000000000000000000000000000000000000000000000000000000008152506040518060400160405280600f81526020017f476f7665726e616e6365546f6b656e00000000000000000000000000000000008152506040518060400160405280600281526020017f475400000000000000000000000000000000000000000000000000000000000081525081600390805190602001906200011292919062000bc5565b5080600490805190602001906200012b92919062000bc5565b50505060008280519060200120905060008280519060200120905060007f8b73c3c69bb8fe3d512ecc4cf759cc79239f7b179b0ffacaa9a75d522b39400f90508260e081815250508161010081815250504660a0818152505062000197818484620001fb60201b60201c565b608081815250503073ffffffffffffffffffffffffffffffffffffffff1660c08173ffffffffffffffffffffffffffffffffffffffff1681525050806101208181525050505050505050620001f533600a546200023760201b60201c565b6200110e565b600083838346306040516020016200021895949392919062000cf0565b6040516020818303038152906040528051906020012090509392505050565b6200024e82826200025260201b62000eaa1760201c565b5050565b6200026982826200031060201b62000f371760201c565b620002796200047e60201b60201c565b7bffffffffffffffffffffffffffffffffffffffffffffffffffffffff16620002a7620004a260201b60201c565b1115620002eb576040517f08c379a0000000000000000000000000000000000000000000000000000000008152600401620002e29062000dd4565b60405180910390fd5b6200030a6009620004ac60201b6200108e1783620004c460201b60201c565b50505050565b600073ffffffffffffffffffffffffffffffffffffffff168273ffffffffffffffffffffffffffffffffffffffff16141562000383576040517f08c379a00000000000000000000000000000000000000000000000000000000081526004016200037a9062000e46565b60405180910390fd5b6200039760008383620007d160201b60201c565b8060026000828254620003ab919062000e97565b92505081905550806000808473ffffffffffffffffffffffffffffffffffffffff1673ffffffffffffffffffffffffffffffffffffffff168152602001908152602001600020600082825401925050819055508173ffffffffffffffffffffffffffffffffffffffff16600073ffffffffffffffffffffffffffffffffffffffff167fddf252ad1be2c89b69c2b068fc378daa952ba7f163c4a11628f55a4df523b3ef836040516200045e919062000ef4565b60405180910390a36200047a60008383620007d660201b60201c565b5050565b60007bffffffffffffffffffffffffffffffffffffffffffffffffffffffff905090565b6000600254905090565b60008183620004bc919062000e97565b905092915050565b60008060008580549050905060008082146200059f57620004fa87600184620004ee919062000f11565b620007f360201b60201c565b6040518060400160405290816000820160009054906101000a900463ffffffff1663ffffffff1663ffffffff1681526020016000820160049054906101000a90047bffffffffffffffffffffffffffffffffffffffffffffffffffffffff167bffffffffffffffffffffffffffffffffffffffffffffffffffffffff167bffffffffffffffffffffffffffffffffffffffffffffffffffffffff1681525050620005db565b6040518060400160405280600063ffffffff16815260200160007bffffffffffffffffffffffffffffffffffffffffffffffffffffffff168152505b905080602001517bffffffffffffffffffffffffffffffffffffffffffffffffffffffff1693506200060e84868860201c565b92506000821180156200062a575043816000015163ffffffff16145b15620006bd5762000646836200080860201b620010a41760201c565b62000666886001856200065a919062000f11565b620007f360201b60201c565b60000160046101000a8154817bffffffffffffffffffffffffffffffffffffffffffffffffffffffff02191690837bffffffffffffffffffffffffffffffffffffffffffffffffffffffff160217905550620007c7565b866040518060400160405280620006df436200087660201b6200110f1760201c565b63ffffffff16815260200162000700866200080860201b620010a41760201c565b7bffffffffffffffffffffffffffffffffffffffffffffffffffffffff168152509080600181540180825580915050600190039060005260206000200160009091909190915060008201518160000160006101000a81548163ffffffff021916908363ffffffff16021790555060208201518160000160046101000a8154817bffffffffffffffffffffffffffffffffffffffffffffffffffffffff02191690837bffffffffffffffffffffffffffffffffffffffffffffffffffffffff16021790555050505b5050935093915050565b505050565b620007ee838383620008cc60201b620011621760201c565b505050565b60008260005281602060002001905092915050565b60007bffffffffffffffffffffffffffffffffffffffffffffffffffffffff80168211156200086e576040517f08c379a0000000000000000000000000000000000000000000000000000000008152600401620008659062000fc2565b60405180910390fd5b819050919050565b600063ffffffff8016821115620008c4576040517f08c379a0000000000000000000000000000000000000000000000000000000008152600401620008bb906200105a565b60405180910390fd5b819050919050565b620008e48383836200091c60201b6200118d1760201c565b62000917620008f9846200092160201b60201c565b6200090a846200092160201b60201c565b836200098a60201b60201c565b505050565b505050565b6000600760008373ffffffffffffffffffffffffffffffffffffffff1673ffffffffffffffffffffffffffffffffffffffff16815260200190815260200160002060009054906101000a900473ffffffffffffffffffffffffffffffffffffffff169050919050565b8173ffffffffffffffffffffffffffffffffffffffff168373ffffffffffffffffffffffffffffffffffffffff1614158015620009c75750600081115b1562000ba857600073ffffffffffffffffffffffffffffffffffffffff168373ffffffffffffffffffffffffffffffffffffffff161462000aba5760008062000a61600860008773ffffffffffffffffffffffffffffffffffffffff1673ffffffffffffffffffffffffffffffffffffffff16815260200190815260200160002062000bad60201b620011921785620004c460201b60201c565b915091508473ffffffffffffffffffffffffffffffffffffffff167fdec2bacdd2f05b59de34da9b523dff8be42e5e38e818c82fdb0bae774387a724838360405162000aaf9291906200107c565b60405180910390a250505b600073ffffffffffffffffffffffffffffffffffffffff168273ffffffffffffffffffffffffffffffffffffffff161462000ba75760008062000b4e600860008673ffffffffffffffffffffffffffffffffffffffff1673ffffffffffffffffffffffffffffffffffffffff168152602001908152602001600020620004ac60201b6200108e1785620004c460201b60201c565b915091508373ffffffffffffffffffffffffffffffffffffffff167fdec2bacdd2f05b59de34da9b523dff8be42e5e38e818c82fdb0bae774387a724838360405162000b9c9291906200107c565b60405180910390a250505b5b505050565b6000818362000bbd919062000f11565b905092915050565b82805462000bd390620010d8565b90600052602060002090601f01602090048101928262000bf7576000855562000c43565b82601f1062000c1257805160ff191683800117855562000c43565b8280016001018555821562000c43579182015b8281111562000c4257825182559160200191906001019062000c25565b5b50905062000c52919062000c56565b5090565b5b8082111562000c7157600081600090555060010162000c57565b5090565b6000819050919050565b62000c8a8162000c75565b82525050565b6000819050919050565b62000ca58162000c90565b82525050565b600073ffffffffffffffffffffffffffffffffffffffff82169050919050565b600062000cd88262000cab565b9050919050565b62000cea8162000ccb565b82525050565b600060a08201905062000d07600083018862000c7f565b62000d16602083018762000c7f565b62000d25604083018662000c7f565b62000d34606083018562000c9a565b62000d43608083018462000cdf565b9695505050505050565b600082825260208201905092915050565b7f4552433230566f7465733a20746f74616c20737570706c79207269736b73206f60008201527f766572666c6f77696e6720766f74657300000000000000000000000000000000602082015250565b600062000dbc60308362000d4d565b915062000dc98262000d5e565b604082019050919050565b6000602082019050818103600083015262000def8162000dad565b9050919050565b7f45524332303a206d696e7420746f20746865207a65726f206164647265737300600082015250565b600062000e2e601f8362000d4d565b915062000e3b8262000df6565b602082019050919050565b6000602082019050818103600083015262000e618162000e1f565b9050919050565b7f4e487b7100000000000000000000000000000000000000000000000000000000600052601160045260246000fd5b600062000ea48262000c90565b915062000eb18362000c90565b9250827fffffffffffffffffffffffffffffffffffffffffffffffffffffffffffffffff0382111562000ee95762000ee862000e68565b5b828201905092915050565b600060208201905062000f0b600083018462000c9a565b92915050565b600062000f1e8262000c90565b915062000f2b8362000c90565b92508282101562000f415762000f4062000e68565b5b828203905092915050565b7f53616665436173743a2076616c756520646f65736e27742066697420696e203260008201527f3234206269747300000000000000000000000000000000000000000000000000602082015250565b600062000faa60278362000d4d565b915062000fb78262000f4c565b604082019050919050565b6000602082019050818103600083015262000fdd8162000f9b565b9050919050565b7f53616665436173743a2076616c756520646f65736e27742066697420696e203360008201527f3220626974730000000000000000000000000000000000000000000000000000602082015250565b60006200104260268362000d4d565b91506200104f8262000fe4565b604082019050919050565b60006020820190508181036000830152620010758162001033565b9050919050565b600060408201905062001093600083018562000c9a565b620010a2602083018462000c9a565b9392505050565b7f4e487b7100000000000000000000000000000000000000000000000000000000600052602260045260246000fd5b60006002820490506001821680620010f157607f821691505b60208210811415620011085762001107620010a9565b5b50919050565b60805160a05160c05160e05161010051610120516138ce6200115e600039600061172d0152600061176f0152600061174e01526000611683015260006116d90152600061170201526138ce6000f3fe608060405234801561001057600080fd5b506004361061014d5760003560e01c80636fcfff45116100c3578063a457c2d71161007c578063a457c2d714610402578063a9059cbb14610432578063c3cda52014610462578063d505accf1461047e578063dd62ed3e1461049a578063f1127ed8146104ca5761014d565b80636fcfff45146102f457806370a08231146103245780637ecebe00146103545780638e539e8c1461038457806395d89b41146103b45780639ab24eb0146103d25761014d565b80633644e515116101155780633644e5151461020c578063395093511461022a5780633a46b1a81461025a578063587cde1e1461028a5780635c19a95c146102ba5780635d641847146102d65761014d565b806306fdde0314610152578063095ea7b31461017057806318160ddd146101a057806323b872dd146101be578063313ce567146101ee575b600080fd5b61015a6104fa565b6040516101679190612590565b60405180910390f35b61018a6004803603810190610185919061264b565b61058c565b60405161019791906126a6565b60405180910390f35b6101a86105af565b6040516101b591906126d0565b60405180910390f35b6101d860048036038101906101d391906126eb565b6105b9565b6040516101e591906126a6565b60405180910390f35b6101f66105e8565b604051610203919061275a565b60405180910390f35b6102146105f1565b604051610221919061278e565b60405180910390f35b610244600480360381019061023f919061264b565b610600565b60405161025191906126a6565b60405180910390f35b610274600480360381019061026f919061264b565b610637565b60405161028191906126d0565b60405180910390f35b6102a4600480360381019061029f91906127a9565b6106cb565b6040516102b191906127e5565b60405180910390f35b6102d460048036038101906102cf91906127a9565b610734565b005b6102de610748565b6040516102eb91906126d0565b60405180910390f35b61030e600480360381019061030991906127a9565b61074e565b60405161031b919061281f565b60405180910390f35b61033e600480360381019061033991906127a9565b6107a2565b60405161034b91906126d0565b60405180910390f35b61036e600480360381019061036991906127a9565b6107ea565b60405161037b91906126d0565b60405180910390f35b61039e6004803603810190610399919061283a565b61083a565b6040516103ab91906126d0565b60405180910390f35b6103bc610890565b6040516103c99190612590565b60405180910390f35b6103ec60048036038101906103e791906127a9565b610922565b6040516103f991906126d0565b60405180910390f35b61041c6004803603810190610417919061264b565b610a33565b60405161042991906126a6565b60405180910390f35b61044c6004803603810190610447919061264b565b610aaa565b60405161045991906126a6565b60405180910390f35b61047c600480360381019061047791906128bf565b610acd565b005b6104986004803603810190610493919061294c565b610bd1565b005b6104b460048036038101906104af91906129ee565b610d13565b6040516104c191906126d0565b60405180910390f35b6104e460048036038101906104df9190612a5a565b610d9a565b6040516104f19190612b0f565b60405180910390f35b60606003805461050990612b59565b80601f016020809104026020016040519081016040528092919081815260200182805461053590612b59565b80156105825780601f1061055757610100808354040283529160200191610582565b820191906000526020600020905b81548152906001019060200180831161056557829003601f168201915b5050505050905090565b6000806105976111a8565b90506105a48185856111b0565b600191505092915050565b6000600254905090565b6000806105c46111a8565b90506105d185828561137b565b6105dc858585611407565b60019150509392505050565b60006012905090565b60006105fb61167f565b905090565b60008061060b6111a8565b905061062c81858561061d8589610d13565b6106279190612bba565b6111b0565b600191505092915050565b600043821061067b576040517f08c379a000000000000000000000000000000000000000000000000000000000815260040161067290612c5c565b60405180910390fd5b6106c3600860008573ffffffffffffffffffffffffffffffffffffffff1673ffffffffffffffffffffffffffffffffffffffff16815260200190815260200160002083611799565b905092915050565b6000600760008373ffffffffffffffffffffffffffffffffffffffff1673ffffffffffffffffffffffffffffffffffffffff16815260200190815260200160002060009054906101000a900473ffffffffffffffffffffffffffffffffffffffff169050919050565b61074561073f6111a8565b826118ea565b50565b600a5481565b600061079b600860008473ffffffffffffffffffffffffffffffffffffffff1673ffffffffffffffffffffffffffffffffffffffff1681526020019081526020016000208054905061110f565b9050919050565b60008060008373ffffffffffffffffffffffffffffffffffffffff1673ffffffffffffffffffffffffffffffffffffffff168152602001908152602001600020549050919050565b6000610833600560008473ffffffffffffffffffffffffffffffffffffffff1673ffffffffffffffffffffffffffffffffffffffff168152602001908152602001600020611a04565b9050919050565b600043821061087e576040517f08c379a000000000000000000000000000000000000000000000000000000000815260040161087590612c5c565b60405180910390fd5b610889600983611799565b9050919050565b60606004805461089f90612b59565b80601f01602080910402602001604051908101604052809291908181526020018280546108cb90612b59565b80156109185780601f106108ed57610100808354040283529160200191610918565b820191906000526020600020905b8154815290600101906020018083116108fb57829003601f168201915b5050505050905090565b600080600860008473ffffffffffffffffffffffffffffffffffffffff1673ffffffffffffffffffffffffffffffffffffffff16815260200190815260200160002080549050905060008114610a0a57600860008473ffffffffffffffffffffffffffffffffffffffff1673ffffffffffffffffffffffffffffffffffffffff1681526020019081526020016000206001826109be9190612c7c565b815481106109cf576109ce612cb0565b5b9060005260206000200160000160049054906101000a90047bffffffffffffffffffffffffffffffffffffffffffffffffffffffff16610a0d565b60005b7bffffffffffffffffffffffffffffffffffffffffffffffffffffffff16915050919050565b600080610a3e6111a8565b90506000610a4c8286610d13565b905083811015610a91576040517f08c379a0000000000000000000000000000000000000000000000000000000008152600401610a8890612d51565b60405180910390fd5b610a9e82868684036111b0565b60019250505092915050565b600080610ab56111a8565b9050610ac2818585611407565b600191505092915050565b83421115610b10576040517f08c379a0000000000000000000000000000000000000000000000000000000008152600401610b0790612dbd565b60405180910390fd5b6000610b72610b6a7fe48329057bfd03d55e49b547132e39cffd9c1820ad7b9d4c5307691425d15adf898989604051602001610b4f9493929190612ddd565b60405160208183030381529060405280519060200120611a12565b858585611a2c565b9050610b7d81611a57565b8614610bbe576040517f08c379a0000000000000000000000000000000000000000000000000000000008152600401610bb590612e6e565b60405180910390fd5b610bc881886118ea565b50505050505050565b83421115610c14576040517f08c379a0000000000000000000000000000000000000000000000000000000008152600401610c0b90612eda565b60405180910390fd5b60007f6e71edae12b1b97f4d1f60370fef10105fa2faae0126114a169c64845d6126c9888888610c438c611a57565b89604051602001610c5996959493929190612efa565b6040516020818303038152906040528051906020012090506000610c7c82611a12565b90506000610c8c82878787611a2c565b90508973ffffffffffffffffffffffffffffffffffffffff168173ffffffffffffffffffffffffffffffffffffffff1614610cfc576040517f08c379a0000000000000000000000000000000000000000000000000000000008152600401610cf390612fa7565b60405180910390fd5b610d078a8a8a6111b0565b50505050505050505050565b6000600160008473ffffffffffffffffffffffffffffffffffffffff1673ffffffffffffffffffffffffffffffffffffffff16815260200190815260200160002060008373ffffffffffffffffffffffffffffffffffffffff1673ffffffffffffffffffffffffffffffffffffffff16815260200190815260200160002054905092915050565b610da26124b9565b600860008473ffffffffffffffffffffffffffffffffffffffff1673ffffffffffffffffffffffffffffffffffffffff1681526020019081526020016000208263ffffffff1681548110610df957610df8612cb0565b5b906000526020600020016040518060400160405290816000820160009054906101000a900463ffffffff1663ffffffff1663ffffffff1681526020016000820160049054906101000a90047bffffffffffffffffffffffffffffffffffffffffffffffffffffffff167bffffffffffffffffffffffffffffffffffffffffffffffffffffffff167bffffffffffffffffffffffffffffffffffffffffffffffffffffffff1681525050905092915050565b610eb48282610f37565b610ebc611ab5565b7bffffffffffffffffffffffffffffffffffffffffffffffffffffffff16610ee26105af565b1115610f23576040517f08c379a0000000000000000000000000000000000000000000000000000000008152600401610f1a90613039565b60405180910390fd5b610f31600961108e83611ad9565b50505050565b600073ffffffffffffffffffffffffffffffffffffffff168273ffffffffffffffffffffffffffffffffffffffff161415610fa7576040517f08c379a0000000000000000000000000000000000000000000000000000000008152600401610f9e906130a5565b60405180910390fd5b610fb360008383611da8565b8060026000828254610fc59190612bba565b92505081905550806000808473ffffffffffffffffffffffffffffffffffffffff1673ffffffffffffffffffffffffffffffffffffffff168152602001908152602001600020600082825401925050819055508173ffffffffffffffffffffffffffffffffffffffff16600073ffffffffffffffffffffffffffffffffffffffff167fddf252ad1be2c89b69c2b068fc378daa952ba7f163c4a11628f55a4df523b3ef8360405161107691906126d0565b60405180910390a361108a60008383611dad565b5050565b6000818361109c9190612bba565b905092915050565b60007bffffffffffffffffffffffffffffffffffffffffffffffffffffffff8016821115611107576040517f08c379a00000000000000000000000000000000000000000000000000000000081526004016110fe90613137565b60405180910390fd5b819050919050565b600063ffffffff801682111561115a576040517f08c379a0000000000000000000000000000000000000000000000000000000008152600401611151906131c9565b60405180910390fd5b819050919050565b61116d83838361118d565b611188611179846106cb565b611182846106cb565b83611dbd565b505050565b505050565b600081836111a09190612c7c565b905092915050565b600033905090565b600073ffffffffffffffffffffffffffffffffffffffff168373ffffffffffffffffffffffffffffffffffffffff161415611220576040517f08c379a00000000000000000000000000000000000000000000000000000000081526004016112179061325b565b60405180910390fd5b600073ffffffffffffffffffffffffffffffffffffffff168273ffffffffffffffffffffffffffffffffffffffff161415611290576040517f08c379a0000000000000000000000000000000000000000000000000000000008152600401611287906132ed565b60405180910390fd5b80600160008573ffffffffffffffffffffffffffffffffffffffff1673ffffffffffffffffffffffffffffffffffffffff16815260200190815260200160002060008473ffffffffffffffffffffffffffffffffffffffff1673ffffffffffffffffffffffffffffffffffffffff168152602001908152602001600020819055508173ffffffffffffffffffffffffffffffffffffffff168373ffffffffffffffffffffffffffffffffffffffff167f8c5be1e5ebec7d5bd14f71427d1e84f3dd0314c0f7b2291e5b200ac8c7c3b9258360405161136e91906126d0565b60405180910390a3505050565b60006113878484610d13565b90507fffffffffffffffffffffffffffffffffffffffffffffffffffffffffffffffff811461140157818110156113f3576040517f08c379a00000000000000000000000000000000000000000000000000000000081526004016113ea90613359565b60405180910390fd5b61140084848484036111b0565b5b50505050565b600073ffffffffffffffffffffffffffffffffffffffff168373ffffffffffffffffffffffffffffffffffffffff161415611477576040517f08c379a000000000000000000000000000000000000000000000000000000000815260040161146e906133eb565b60405180910390fd5b600073ffffffffffffffffffffffffffffffffffffffff168273ffffffffffffffffffffffffffffffffffffffff1614156114e7576040517f08c379a00000000000000000000000000000000000000000000000000000000081526004016114de9061347d565b60405180910390fd5b6114f2838383611da8565b60008060008573ffffffffffffffffffffffffffffffffffffffff1673ffffffffffffffffffffffffffffffffffffffff16815260200190815260200160002054905081811015611578576040517f08c379a000000000000000000000000000000000000000000000000000000000815260040161156f9061350f565b60405180910390fd5b8181036000808673ffffffffffffffffffffffffffffffffffffffff1673ffffffffffffffffffffffffffffffffffffffff16815260200190815260200160002081905550816000808573ffffffffffffffffffffffffffffffffffffffff1673ffffffffffffffffffffffffffffffffffffffff168152602001908152602001600020600082825401925050819055508273ffffffffffffffffffffffffffffffffffffffff168473ffffffffffffffffffffffffffffffffffffffff167fddf252ad1be2c89b69c2b068fc378daa952ba7f163c4a11628f55a4df523b3ef8460405161166691906126d0565b60405180910390a3611679848484611dad565b50505050565b60007f000000000000000000000000000000000000000000000000000000000000000073ffffffffffffffffffffffffffffffffffffffff163073ffffffffffffffffffffffffffffffffffffffff161480156116fb57507f000000000000000000000000000000000000000000000000000000000000000046145b15611728577f00000000000000000000000000000000000000000000000000000000000000009050611796565b6117937f00000000000000000000000000000000000000000000000000000000000000007f00000000000000000000000000000000000000000000000000000000000000007f0000000000000000000000000000000000000000000000000000000000000000611fb6565b90505b90565b60008083805490509050600080829050600583111561180f5760006117bd84611ff0565b846117c89190612c7c565b9050856117d588836120ea565b60000160009054906101000a900463ffffffff1663ffffffff1611156117fd5780915061180d565b60018161180a9190612bba565b92505b505b5b8082101561186f57600061182483836120ff565b90508561183188836120ea565b60000160009054906101000a900463ffffffff1663ffffffff16111561185957809150611869565b6001816118669190612bba565b92505b50611810565b600081146118be5761188d866001836118889190612c7c565b6120ea565b60000160049054906101000a90047bffffffffffffffffffffffffffffffffffffffffffffffffffffffff166118c1565b60005b7bffffffffffffffffffffffffffffffffffffffffffffffffffffffff16935050505092915050565b60006118f5836106cb565b90506000611902846107a2565b905082600760008673ffffffffffffffffffffffffffffffffffffffff1673ffffffffffffffffffffffffffffffffffffffff16815260200190815260200160002060006101000a81548173ffffffffffffffffffffffffffffffffffffffff021916908373ffffffffffffffffffffffffffffffffffffffff1602179055508273ffffffffffffffffffffffffffffffffffffffff168273ffffffffffffffffffffffffffffffffffffffff168573ffffffffffffffffffffffffffffffffffffffff167f3134e8a2e6d97e929a7e54011ea5485d7d196dd5f0ba4d4ef95803e8e3fc257f60405160405180910390a46119fe828483611dbd565b50505050565b600081600001549050919050565b6000611a25611a1f61167f565b83612125565b9050919050565b6000806000611a3d87878787612158565b91509150611a4a8161223b565b8192505050949350505050565b600080600560008473ffffffffffffffffffffffffffffffffffffffff1673ffffffffffffffffffffffffffffffffffffffff1681526020019081526020016000209050611aa481611a04565b9150611aaf816123a9565b50919050565b60007bffffffffffffffffffffffffffffffffffffffffffffffffffffffff905090565b6000806000858054905090506000808214611ba857611b0487600184611aff9190612c7c565b6120ea565b6040518060400160405290816000820160009054906101000a900463ffffffff1663ffffffff1663ffffffff1681526020016000820160049054906101000a90047bffffffffffffffffffffffffffffffffffffffffffffffffffffffff167bffffffffffffffffffffffffffffffffffffffffffffffffffffffff167bffffffffffffffffffffffffffffffffffffffffffffffffffffffff1681525050611be4565b6040518060400160405280600063ffffffff16815260200160007bffffffffffffffffffffffffffffffffffffffffffffffffffffffff168152505b905080602001517bffffffffffffffffffffffffffffffffffffffffffffffffffffffff169350611c1984868863ffffffff16565b9250600082118015611c34575043816000015163ffffffff16145b15611cae57611c42836110a4565b611c5888600185611c539190612c7c565b6120ea565b60000160046101000a8154817bffffffffffffffffffffffffffffffffffffffffffffffffffffffff02191690837bffffffffffffffffffffffffffffffffffffffffffffffffffffffff160217905550611d9e565b866040518060400160405280611cc34361110f565b63ffffffff168152602001611cd7866110a4565b7bffffffffffffffffffffffffffffffffffffffffffffffffffffffff168152509080600181540180825580915050600190039060005260206000200160009091909190915060008201518160000160006101000a81548163ffffffff021916908363ffffffff16021790555060208201518160000160046101000a8154817bffffffffffffffffffffffffffffffffffffffffffffffffffffffff02191690837bffffffffffffffffffffffffffffffffffffffffffffffffffffffff16021790555050505b5050935093915050565b505050565b611db8838383611162565b505050565b8173ffffffffffffffffffffffffffffffffffffffff168373ffffffffffffffffffffffffffffffffffffffff1614158015611df95750600081115b15611fb157600073ffffffffffffffffffffffffffffffffffffffff168373ffffffffffffffffffffffffffffffffffffffff1614611ed757600080611e80600860008773ffffffffffffffffffffffffffffffffffffffff1673ffffffffffffffffffffffffffffffffffffffff16815260200190815260200160002061119285611ad9565b915091508473ffffffffffffffffffffffffffffffffffffffff167fdec2bacdd2f05b59de34da9b523dff8be42e5e38e818c82fdb0bae774387a7248383604051611ecc92919061352f565b60405180910390a250505b600073ffffffffffffffffffffffffffffffffffffffff168273ffffffffffffffffffffffffffffffffffffffff1614611fb057600080611f59600860008673ffffffffffffffffffffffffffffffffffffffff1673ffffffffffffffffffffffffffffffffffffffff16815260200190815260200160002061108e85611ad9565b915091508373ffffffffffffffffffffffffffffffffffffffff167fdec2bacdd2f05b59de34da9b523dff8be42e5e38e818c82fdb0bae774387a7248383604051611fa592919061352f565b60405180910390a250505b5b505050565b60008383834630604051602001611fd1959493929190613558565b6040516020818303038152906040528051906020012090509392505050565b60008082141561200357600090506120e5565b60006001612010846123bf565b901c6001901b9050600181848161202a576120296135ab565b5b048201901c90506001818481612043576120426135ab565b5b048201901c9050600181848161205c5761205b6135ab565b5b048201901c90506001818481612075576120746135ab565b5b048201901c9050600181848161208e5761208d6135ab565b5b048201901c905060018184816120a7576120a66135ab565b5b048201901c905060018184816120c0576120bf6135ab565b5b048201901c90506120e1818285816120db576120da6135ab565b5b046124a0565b9150505b919050565b60008260005281602060002001905092915050565b6000600282841861211091906135da565b82841661211d9190612bba565b905092915050565b6000828260405160200161213a929190613683565b60405160208183030381529060405280519060200120905092915050565b6000807f7fffffffffffffffffffffffffffffff5d576e7357a4501ddfe92f46681b20a08360001c1115612193576000600391509150612232565b6000600187878787604051600081526020016040526040516121b894939291906136ba565b6020604051602081039080840390855afa1580156121da573d6000803e3d6000fd5b505050602060405103519050600073ffffffffffffffffffffffffffffffffffffffff168173ffffffffffffffffffffffffffffffffffffffff16141561222957600060019250925050612232565b80600092509250505b94509492505050565b6000600481111561224f5761224e6136ff565b5b816004811115612262576122616136ff565b5b141561226d576123a6565b60016004811115612281576122806136ff565b5b816004811115612294576122936136ff565b5b14156122d5576040517f08c379a00000000000000000000000000000000000000000000000000000000081526004016122cc9061377a565b60405180910390fd5b600260048111156122e9576122e86136ff565b5b8160048111156122fc576122fb6136ff565b5b141561233d576040517f08c379a0000000000000000000000000000000000000000000000000000000008152600401612334906137e6565b60405180910390fd5b60036004811115612351576123506136ff565b5b816004811115612364576123636136ff565b5b14156123a5576040517f08c379a000000000000000000000000000000000000000000000000000000000815260040161239c90613878565b60405180910390fd5b5b50565b6001816000016000828254019250508190555050565b600080600090506000608084901c11156123e157608083901c92506080810190505b6000604084901c11156123fc57604083901c92506040810190505b6000602084901c111561241757602083901c92506020810190505b6000601084901c111561243257601083901c92506010810190505b6000600884901c111561244d57600883901c92506008810190505b6000600484901c111561246857600483901c92506004810190505b6000600284901c111561248357600283901c92506002810190505b6000600184901c1115612497576001810190505b80915050919050565b60008183106124af57816124b1565b825b905092915050565b6040518060400160405280600063ffffffff16815260200160007bffffffffffffffffffffffffffffffffffffffffffffffffffffffff1681525090565b600081519050919050565b600082825260208201905092915050565b60005b83811015612531578082015181840152602081019050612516565b83811115612540576000848401525b50505050565b6000601f19601f8301169050919050565b6000612562826124f7565b61256c8185612502565b935061257c818560208601612513565b61258581612546565b840191505092915050565b600060208201905081810360008301526125aa8184612557565b905092915050565b600080fd5b600073ffffffffffffffffffffffffffffffffffffffff82169050919050565b60006125e2826125b7565b9050919050565b6125f2816125d7565b81146125fd57600080fd5b50565b60008135905061260f816125e9565b92915050565b6000819050919050565b61262881612615565b811461263357600080fd5b50565b6000813590506126458161261f565b92915050565b60008060408385031215612662576126616125b2565b5b600061267085828601612600565b925050602061268185828601612636565b9150509250929050565b60008115159050919050565b6126a08161268b565b82525050565b60006020820190506126bb6000830184612697565b92915050565b6126ca81612615565b82525050565b60006020820190506126e560008301846126c1565b92915050565b600080600060608486031215612704576127036125b2565b5b600061271286828701612600565b935050602061272386828701612600565b925050604061273486828701612636565b9150509250925092565b600060ff82169050919050565b6127548161273e565b82525050565b600060208201905061276f600083018461274b565b92915050565b6000819050919050565b61278881612775565b82525050565b60006020820190506127a3600083018461277f565b92915050565b6000602082840312156127bf576127be6125b2565b5b60006127cd84828501612600565b91505092915050565b6127df816125d7565b82525050565b60006020820190506127fa60008301846127d6565b92915050565b600063ffffffff82169050919050565b61281981612800565b82525050565b60006020820190506128346000830184612810565b92915050565b6000602082840312156128505761284f6125b2565b5b600061285e84828501612636565b91505092915050565b6128708161273e565b811461287b57600080fd5b50565b60008135905061288d81612867565b92915050565b61289c81612775565b81146128a757600080fd5b50565b6000813590506128b981612893565b92915050565b60008060008060008060c087890312156128dc576128db6125b2565b5b60006128ea89828a01612600565b96505060206128fb89828a01612636565b955050604061290c89828a01612636565b945050606061291d89828a0161287e565b935050608061292e89828a016128aa565b92505060a061293f89828a016128aa565b9150509295509295509295565b600080600080600080600060e0888a03121561296b5761296a6125b2565b5b60006129798a828b01612600565b975050602061298a8a828b01612600565b965050604061299b8a828b01612636565b95505060606129ac8a828b01612636565b94505060806129bd8a828b0161287e565b93505060a06129ce8a828b016128aa565b92505060c06129df8a828b016128aa565b91505092959891949750929550565b60008060408385031215612a0557612a046125b2565b5b6000612a1385828601612600565b9250506020612a2485828601612600565b9150509250929050565b612a3781612800565b8114612a4257600080fd5b50565b600081359050612a5481612a2e565b92915050565b60008060408385031215612a7157612a706125b2565b5b6000612a7f85828601612600565b9250506020612a9085828601612a45565b9150509250929050565b612aa381612800565b82525050565b60007bffffffffffffffffffffffffffffffffffffffffffffffffffffffff82169050919050565b612ada81612aa9565b82525050565b604082016000820151612af66000850182612a9a565b506020820151612b096020850182612ad1565b50505050565b6000604082019050612b246000830184612ae0565b92915050565b7f4e487b7100000000000000000000000000000000000000000000000000000000600052602260045260246000fd5b60006002820490506001821680612b7157607f821691505b60208210811415612b8557612b84612b2a565b5b50919050565b7f4e487b7100000000000000000000000000000000000000000000000000000000600052601160045260246000fd5b6000612bc582612615565b9150612bd083612615565b9250827fffffffffffffffffffffffffffffffffffffffffffffffffffffffffffffffff03821115612c0557612c04612b8b565b5b828201905092915050565b7f4552433230566f7465733a20626c6f636b206e6f7420796574206d696e656400600082015250565b6000612c46601f83612502565b9150612c5182612c10565b602082019050919050565b60006020820190508181036000830152612c7581612c39565b9050919050565b6000612c8782612615565b9150612c9283612615565b925082821015612ca557612ca4612b8b565b5b828203905092915050565b7f4e487b7100000000000000000000000000000000000000000000000000000000600052603260045260246000fd5b7f45524332303a2064656372656173656420616c6c6f77616e63652062656c6f7760008201527f207a65726f000000000000000000000000000000000000000000000000000000602082015250565b6000612d3b602583612502565b9150612d4682612cdf565b604082019050919050565b60006020820190508181036000830152612d6a81612d2e565b9050919050565b7f4552433230566f7465733a207369676e61747572652065787069726564000000600082015250565b6000612da7601d83612502565b9150612db282612d71565b602082019050919050565b60006020820190508181036000830152612dd681612d9a565b9050919050565b6000608082019050612df2600083018761277f565b612dff60208301866127d6565b612e0c60408301856126c1565b612e1960608301846126c1565b95945050505050565b7f4552433230566f7465733a20696e76616c6964206e6f6e636500000000000000600082015250565b6000612e58601983612502565b9150612e6382612e22565b602082019050919050565b60006020820190508181036000830152612e8781612e4b565b9050919050565b7f45524332305065726d69743a206578706972656420646561646c696e65000000600082015250565b6000612ec4601d83612502565b9150612ecf82612e8e565b602082019050919050565b60006020820190508181036000830152612ef381612eb7565b9050919050565b600060c082019050612f0f600083018961277f565b612f1c60208301886127d6565b612f2960408301876127d6565b612f3660608301866126c1565b612f4360808301856126c1565b612f5060a08301846126c1565b979650505050505050565b7f45524332305065726d69743a20696e76616c6964207369676e61747572650000600082015250565b6000612f91601e83612502565b9150612f9c82612f5b565b602082019050919050565b60006020820190508181036000830152612fc081612f84565b9050919050565b7f4552433230566f7465733a20746f74616c20737570706c79207269736b73206f60008201527f766572666c6f77696e6720766f74657300000000000000000000000000000000602082015250565b6000613023603083612502565b915061302e82612fc7565b604082019050919050565b6000602082019050818103600083015261305281613016565b9050919050565b7f45524332303a206d696e7420746f20746865207a65726f206164647265737300600082015250565b600061308f601f83612502565b915061309a82613059565b602082019050919050565b600060208201905081810360008301526130be81613082565b9050919050565b7f53616665436173743a2076616c756520646f65736e27742066697420696e203260008201527f3234206269747300000000000000000000000000000000000000000000000000602082015250565b6000613121602783612502565b915061312c826130c5565b604082019050919050565b6000602082019050818103600083015261315081613114565b9050919050565b7f53616665436173743a2076616c756520646f65736e27742066697420696e203360008201527f3220626974730000000000000000000000000000000000000000000000000000602082015250565b60006131b3602683612502565b91506131be82613157565b604082019050919050565b600060208201905081810360008301526131e2816131a6565b9050919050565b7f45524332303a20617070726f76652066726f6d20746865207a65726f2061646460008201527f7265737300000000000000000000000000000000000000000000000000000000602082015250565b6000613245602483612502565b9150613250826131e9565b604082019050919050565b6000602082019050818103600083015261327481613238565b9050919050565b7f45524332303a20617070726f766520746f20746865207a65726f20616464726560008201527f7373000000000000000000000000000000000000000000000000000000000000602082015250565b60006132d7602283612502565b91506132e28261327b565b604082019050919050565b60006020820190508181036000830152613306816132ca565b9050919050565b7f45524332303a20696e73756666696369656e7420616c6c6f77616e6365000000600082015250565b6000613343601d83612502565b915061334e8261330d565b602082019050919050565b6000602082019050818103600083015261337281613336565b9050919050565b7f45524332303a207472616e736665722066726f6d20746865207a65726f20616460008201527f6472657373000000000000000000000000000000000000000000000000000000602082015250565b60006133d5602583612502565b91506133e082613379565b604082019050919050565b60006020820190508181036000830152613404816133c8565b9050919050565b7f45524332303a207472616e7366657220746f20746865207a65726f206164647260008201527f6573730000000000000000000000000000000000000000000000000000000000602082015250565b6000613467602383612502565b91506134728261340b565b604082019050919050565b600060208201905081810360008301526134968161345a565b9050919050565b7f45524332303a207472616e7366657220616d6f756e742065786365656473206260008201527f616c616e63650000000000000000000000000000000000000000000000000000602082015250565b60006134f9602683612502565b91506135048261349d565b604082019050919050565b60006020820190508181036000830152613528816134ec565b9050919050565b600060408201905061354460008301856126c1565b61355160208301846126c1565b9392505050565b600060a08201905061356d600083018861277f565b61357a602083018761277f565b613587604083018661277f565b61359460608301856126c1565b6135a160808301846127d6565b9695505050505050565b7f4e487b7100000000000000000000000000000000000000000000000000000000600052601260045260246000fd5b60006135e582612615565b91506135f083612615565b925082613600576135ff6135ab565b5b828204905092915050565b600081905092915050565b7f1901000000000000000000000000000000000000000000000000000000000000600082015250565b600061364c60028361360b565b915061365782613616565b600282019050919050565b6000819050919050565b61367d61367882612775565b613662565b82525050565b600061368e8261363f565b915061369a828561366c565b6020820191506136aa828461366c565b6020820191508190509392505050565b60006080820190506136cf600083018761277f565b6136dc602083018661274b565b6136e9604083018561277f565b6136f6606083018461277f565b95945050505050565b7f4e487b7100000000000000000000000000000000000000000000000000000000600052602160045260246000fd5b7f45434453413a20696e76616c6964207369676e61747572650000000000000000600082015250565b6000613764601883612502565b915061376f8261372e565b602082019050919050565b6000602082019050818103600083015261379381613757565b9050919050565b7f45434453413a20696e76616c6964207369676e6174757265206c656e67746800600082015250565b60006137d0601f83612502565b91506137db8261379a565b602082019050919050565b600060208201905081810360008301526137ff816137c3565b9050919050565b7f45434453413a20696e76616c6964207369676e6174757265202773272076616c60008201527f7565000000000000000000000000000000000000000000000000000000000000602082015250565b6000613862602283612502565b915061386d82613806565b604082019050919050565b6000602082019050818103600083015261389181613855565b905091905056fea2646970667358221220141bc9a490455c7086923fe07f8227e1f813e41bc4b31066c658bab3d8a4d49b64736f6c63430008090033",
  "devdoc": {
    "kind": "dev",
    "methods": {
      "DOMAIN_SEPARATOR()": {
        "details": "See {IERC20Permit-DOMAIN_SEPARATOR}."
      },
      "allowance(address,address)": {
        "details": "See {IERC20-allowance}."
      },
      "approve(address,uint256)": {
        "details": "See {IERC20-approve}. NOTE: If `amount` is the maximum `uint256`, the allowance is not updated on `transferFrom`. This is semantically equivalent to an infinite approval. Requirements: - `spender` cannot be the zero address."
      },
      "balanceOf(address)": {
        "details": "See {IERC20-balanceOf}."
      },
      "checkpoints(address,uint32)": {
        "details": "Get the `pos`-th checkpoint for `account`."
      },
      "decimals()": {
        "details": "Returns the number of decimals used to get its user representation. For example, if `decimals` equals `2`, a balance of `505` tokens should be displayed to a user as `5.05` (`505 / 10 ** 2`). Tokens usually opt for a value of 18, imitating the relationship between Ether and Wei. This is the value {ERC20} uses, unless this function is overridden; NOTE: This information is only used for _display_ purposes: it in no way affects any of the arithmetic of the contract, including {IERC20-balanceOf} and {IERC20-transfer}."
      },
      "decreaseAllowance(address,uint256)": {
        "details": "Atomically decreases the allowance granted to `spender` by the caller. This is an alternative to {approve} that can be used as a mitigation for problems described in {IERC20-approve}. Emits an {Approval} event indicating the updated allowance. Requirements: - `spender` cannot be the zero address. - `spender` must have allowance for the caller of at least `subtractedValue`."
      },
      "delegate(address)": {
        "details": "Delegate votes from the sender to `delegatee`."
      },
      "delegateBySig(address,uint256,uint256,uint8,bytes32,bytes32)": {
        "details": "Delegates votes from signer to `delegatee`"
      },
      "delegates(address)": {
        "details": "Get the address `account` is currently delegating to."
      },
      "getPastTotalSupply(uint256)": {
        "details": "Retrieve the `totalSupply` at the end of `blockNumber`. Note, this value is the sum of all balances. It is but NOT the sum of all the delegated votes! Requirements: - `blockNumber` must have been already mined"
      },
      "getPastVotes(address,uint256)": {
        "details": "Retrieve the number of votes for `account` at the end of `blockNumber`. Requirements: - `blockNumber` must have been already mined"
      },
      "getVotes(address)": {
        "details": "Gets the current votes balance for `account`"
      },
      "increaseAllowance(address,uint256)": {
        "details": "Atomically increases the allowance granted to `spender` by the caller. This is an alternative to {approve} that can be used as a mitigation for problems described in {IERC20-approve}. Emits an {Approval} event indicating the updated allowance. Requirements: - `spender` cannot be the zero address."
      },
      "name()": {
        "details": "Returns the name of the token."
      },
      "nonces(address)": {
        "details": "See {IERC20Permit-nonces}."
      },
      "numCheckpoints(address)": {
        "details": "Get number of checkpoints for `account`."
      },
      "permit(address,address,uint256,uint256,uint8,bytes32,bytes32)": {
        "details": "See {IERC20Permit-permit}."
      },
      "symbol()": {
        "details": "Returns the symbol of the token, usually a shorter version of the name."
      },
      "totalSupply()": {
        "details": "See {IERC20-totalSupply}."
      },
      "transfer(address,uint256)": {
        "details": "See {IERC20-transfer}. Requirements: - `to` cannot be the zero address. - the caller must have a balance of at least `amount`."
      },
      "transferFrom(address,address,uint256)": {
        "details": "See {IERC20-transferFrom}. Emits an {Approval} event indicating the updated allowance. This is not required by the EIP. See the note at the beginning of {ERC20}. NOTE: Does not update the allowance if the current allowance is the maximum `uint256`. Requirements: - `from` and `to` cannot be the zero address. - `from` must have a balance of at least `amount`. - the caller must have allowance for ``from``'s tokens of at least `amount`."
      }
    },
    "version": 1
  },
  "userdoc": {
    "kind": "user",
    "methods": {},
    "version": 1
  },
  "storageLayout": {
    "storage": [
      {
        "astId": 4222,
        "contract": "contracts/GovernanceToken.sol:GovernanceToken",
        "label": "_balances",
        "offset": 0,
        "slot": "0",
        "type": "t_mapping(t_address,t_uint256)"
      },
      {
        "astId": 4228,
        "contract": "contracts/GovernanceToken.sol:GovernanceToken",
        "label": "_allowances",
        "offset": 0,
        "slot": "1",
        "type": "t_mapping(t_address,t_mapping(t_address,t_uint256))"
      },
      {
        "astId": 4230,
        "contract": "contracts/GovernanceToken.sol:GovernanceToken",
        "label": "_totalSupply",
        "offset": 0,
        "slot": "2",
        "type": "t_uint256"
      },
      {
        "astId": 4232,
        "contract": "contracts/GovernanceToken.sol:GovernanceToken",
        "label": "_name",
        "offset": 0,
        "slot": "3",
        "type": "t_string_storage"
      },
      {
        "astId": 4234,
        "contract": "contracts/GovernanceToken.sol:GovernanceToken",
        "label": "_symbol",
        "offset": 0,
        "slot": "4",
        "type": "t_string_storage"
      },
      {
        "astId": 5617,
        "contract": "contracts/GovernanceToken.sol:GovernanceToken",
        "label": "_nonces",
        "offset": 0,
        "slot": "5",
        "type": "t_mapping(t_address,t_struct(Counter)7549_storage)"
      },
      {
        "astId": 5625,
        "contract": "contracts/GovernanceToken.sol:GovernanceToken",
        "label": "_PERMIT_TYPEHASH_DEPRECATED_SLOT",
        "offset": 0,
        "slot": "6",
        "type": "t_bytes32"
      },
      {
        "astId": 4897,
        "contract": "contracts/GovernanceToken.sol:GovernanceToken",
        "label": "_delegates",
        "offset": 0,
        "slot": "7",
        "type": "t_mapping(t_address,t_address)"
      },
      {
        "astId": 4903,
        "contract": "contracts/GovernanceToken.sol:GovernanceToken",
        "label": "_checkpoints",
        "offset": 0,
        "slot": "8",
        "type": "t_mapping(t_address,t_array(t_struct(Checkpoint)4888_storage)dyn_storage)"
      },
      {
        "astId": 4907,
        "contract": "contracts/GovernanceToken.sol:GovernanceToken",
        "label": "_totalSupplyCheckpoints",
        "offset": 0,
        "slot": "9",
        "type": "t_array(t_struct(Checkpoint)4888_storage)dyn_storage"
      },
      {
        "astId": 11348,
        "contract": "contracts/GovernanceToken.sol:GovernanceToken",
        "label": "s_maxSupply",
        "offset": 0,
        "slot": "10",
        "type": "t_uint256"
      }
    ],
    "types": {
      "t_address": {
        "encoding": "inplace",
        "label": "address",
        "numberOfBytes": "20"
      },
      "t_array(t_struct(Checkpoint)4888_storage)dyn_storage": {
        "base": "t_struct(Checkpoint)4888_storage",
        "encoding": "dynamic_array",
        "label": "struct ERC20Votes.Checkpoint[]",
        "numberOfBytes": "32"
      },
      "t_bytes32": {
        "encoding": "inplace",
        "label": "bytes32",
        "numberOfBytes": "32"
      },
      "t_mapping(t_address,t_address)": {
        "encoding": "mapping",
        "key": "t_address",
        "label": "mapping(address => address)",
        "numberOfBytes": "32",
        "value": "t_address"
      },
      "t_mapping(t_address,t_array(t_struct(Checkpoint)4888_storage)dyn_storage)": {
        "encoding": "mapping",
        "key": "t_address",
        "label": "mapping(address => struct ERC20Votes.Checkpoint[])",
        "numberOfBytes": "32",
        "value": "t_array(t_struct(Checkpoint)4888_storage)dyn_storage"
      },
      "t_mapping(t_address,t_mapping(t_address,t_uint256))": {
        "encoding": "mapping",
        "key": "t_address",
        "label": "mapping(address => mapping(address => uint256))",
        "numberOfBytes": "32",
        "value": "t_mapping(t_address,t_uint256)"
      },
      "t_mapping(t_address,t_struct(Counter)7549_storage)": {
        "encoding": "mapping",
        "key": "t_address",
        "label": "mapping(address => struct Counters.Counter)",
        "numberOfBytes": "32",
        "value": "t_struct(Counter)7549_storage"
      },
      "t_mapping(t_address,t_uint256)": {
        "encoding": "mapping",
        "key": "t_address",
        "label": "mapping(address => uint256)",
        "numberOfBytes": "32",
        "value": "t_uint256"
      },
      "t_string_storage": {
        "encoding": "bytes",
        "label": "string",
        "numberOfBytes": "32"
      },
      "t_struct(Checkpoint)4888_storage": {
        "encoding": "inplace",
        "label": "struct ERC20Votes.Checkpoint",
        "members": [
          {
            "astId": 4885,
            "contract": "contracts/GovernanceToken.sol:GovernanceToken",
            "label": "fromBlock",
            "offset": 0,
            "slot": "0",
            "type": "t_uint32"
          },
          {
            "astId": 4887,
            "contract": "contracts/GovernanceToken.sol:GovernanceToken",
            "label": "votes",
            "offset": 4,
            "slot": "0",
            "type": "t_uint224"
          }
        ],
        "numberOfBytes": "32"
      },
      "t_struct(Counter)7549_storage": {
        "encoding": "inplace",
        "label": "struct Counters.Counter",
        "members": [
          {
            "astId": 7548,
            "contract": "contracts/GovernanceToken.sol:GovernanceToken",
            "label": "_value",
            "offset": 0,
            "slot": "0",
            "type": "t_uint256"
          }
        ],
        "numberOfBytes": "32"
      },
      "t_uint224": {
        "encoding": "inplace",
        "label": "uint224",
        "numberOfBytes": "28"
      },
      "t_uint256": {
        "encoding": "inplace",
        "label": "uint256",
        "numberOfBytes": "32"
      },
      "t_uint32": {
        "encoding": "inplace",
        "label": "uint32",
        "numberOfBytes": "4"
      }
    }
  }
}